:020000040800F2
:1000000000500020212A0008352700083D2700085D
:10001000452700084D27000855270008000000006C
:100020000000000000000000000000005D27000844
:1000300069270008000000007527000881270008D4
:10004000692A0008692A0008692A0008692A000844
:10005000692A0008692A00083D280008532800087A
:10006000672800087D280008692A0008692A000816
:10007000692A0008692A0008692A0008692A000814
:10008000692A0008692A0008692A0008692A000804
:10009000692A0008692A0008692A0008692A0008F4
:1000A000692A0008692A0008692A0008692A0008E4
:1000B000692A0008692A0008692A0008692A0008D4
:1000C000692A0008692A0008692A0008692A0008C4
:1000D000692A0008692A0008692A0008692A0008B4
:1000E000692A0008692A0008692A0008000000003F
:1000F0000000000000000000000000000000000000
:0C01000000000000000000005FF808F1A3
:1001100010B5054C237833B9044B13B10448AFF341
:1001200000800123237010BD880000200000000023
:100130009868000808B5034B1BB103490348AFF3A7
:10014000008008BD000000008C00002098680008B6
:1001500081F0004102E000BF83F0004330B54FEA78
:1001600041044FEA430594EA050F08BF90EA020FE5
:100170001FBF54EA000C55EA020C7FEA645C7FEA78
:10018000655C00F0E2804FEA5454D4EB5555B8BF9B
:100190006D420CDD2C4480EA020281EA030382EA0C
:1001A000000083EA010180EA020281EA0303362D9E
:1001B00088BF30BD11F0004F4FEA01314FF4801C71
:1001C0004CEA113102D0404261EB410113F0004F83
:1001D0004FEA03334CEA133302D0524263EB43033A
:1001E00094EA050F00F0A780A4F10104D5F1200ED8
:1001F0000DDB02FA0EFC22FA05F2801841F1000133
:1002000003FA0EF2801843FA05F359410EE0A5F106
:1002100020050EF1200E012A03FA0EFC28BF4CF037
:10022000020C43FA05F3C01851EBE37101F00045ED
:1002300007D54FF0000EDCF1000C7EEB00006EEBFA
:100240000101B1F5801F1BD3B1F5001F0CD3490884
:100250005FEA30004FEA3C0C04F101044FEA4452DB
:1002600012F5800F80F09A80BCF1004F08BF5FEA62
:10027000500C50F1000041EB045141EA050130BD42
:100280005FEA4C0C404141EB0101013C28BFB1F554
:10029000801FE9D291F0000F04BF01460020B1FA9F
:1002A00081F308BF2033A3F10B03B3F120020CDA72
:1002B0000C3208DD02F1140CC2F10C0201FA0CF050
:1002C00021FA02F10CE002F11402D8BFC2F1200CB5
:1002D00001FA02F120FA0CFCDCBF41EA0C0190406B
:1002E000E41AA2BF01EB0451294330BD6FEA0404B4
:1002F0001F3C1CDA0C340EDC04F11404C4F120029F
:1003000020FA04F001FA02F340EA030021FA04F3B0
:1003100045EA030130BDC4F10C04C4F1200220FA07
:1003200002F001FA04F340EA0300294630BD21FA45
:1003300004F0294630BD94F0000F83F4801306BF0B
:1003400081F480110134013D4EE77FEA645C18BFFF
:100350007FEA655C29D094EA050F08BF90EA020F96
:1003600005D054EA000C04BF1946104630BD91EA8E
:10037000030F1EBF0021002030BD5FEA545C05D191
:100380004000494128BF41F0004130BD14F58004D0
:100390003CBF01F5801130BD01F0004545F0FE4144
:1003A00041F470014FF0000030BD7FEA645C1ABF79
:1003B000194610467FEA655C1CBF0B46024650EAB0
:1003C000013406BF52EA033591EA030F41F40021DC
:1003D00030BD00BF90F0000F04BF0021704730B562
:1003E0004FF4806404F132044FF000054FF0000137
:1003F00050E700BF90F0000F04BF0021704730B5F8
:100400004FF4806404F1320410F0004548BF4042CC
:100410004FF000013EE700BF42004FEAE2014FEA21
:1004200031014FEA02701FBF12F07F4393F07F4FFC
:1004300081F06051704732F07F4208BF704793F0FF
:100440007F4F04BF41F40021704730B54FF4607412
:1004500001F0004521F000411CE700BF50EA010215
:1004600008BF704730B54FF000050AE050EA0102BE
:1004700008BF704730B511F0004502D5404261EB2E
:1004800041014FF4806404F132045FEA915C3FF46F
:10049000D8AE4FF003025FEADC0C18BF03325FEA0C
:1004A000DC0C18BF033202EBDC02C2F1200300FABD
:1004B00003FC20FA02F001FA03FE40EA0E0021FAE2
:1004C00002F11444BDE600BF70B54FF0FF0C4CF4D0
:1004D000E06C1CEA11541DBF1CEA135594EA0C0F82
:1004E00095EA0C0F00F0DEF82C4481EA030621EABD
:1004F0004C5123EA4C5350EA013518BF52EA0335F8
:1005000041F4801143F4801338D0A0FB02CE4FF0A9
:100510000005E1FB02E506F00042E0FB03E54FF0D9
:100520000006E1FB03569CF0000F18BF4EF0010ED1
:10053000A4F1FF04B6F5007F64F5407404D25FEACD
:100540004E0E6D4146EB060642EAC62141EA555180
:100550004FEAC52040EA5E504FEACE2EB4F1FD0CC2
:1005600088BFBCF5E06F1ED8BEF1004F08BF5FEA40
:10057000500E50F1000041EB045170BD06F00046F2
:1005800046EA010140EA020081EA0301B4EB5C049F
:10059000C2BFD4EB0C0541EA045170BD41F4801197
:1005A0004FF0000E013C00F3AB8014F1360FDEBFBC
:1005B000002001F0004170BDC4F10004203C35DA98
:1005C0000C341BDC04F11404C4F1200500FA05F31B
:1005D00020FA04F001FA05F240EA020001F00042BC
:1005E00021F0004110EBD37021FA04F642EB060132
:1005F0005EEA430E08BF20EAD37070BDC4F10C045C
:10060000C4F1200500FA04F320FA05F001FA04F21F
:1006100040EA020001F0004110EBD37041F100010B
:100620005EEA430E08BF20EAD37070BDC4F1200516
:1006300000FA05F24EEA020E20FA04F301FA05F27E
:1006400043EA020321FA04F001F0004121FA04F226
:1006500020EA020000EBD3705EEA430E08BF20EAF6
:10066000D37070BD94F0000F0FD101F00046400030
:1006700041EB010111F4801F08BF013CF7D041EAB2
:10068000060195F0000F18BF704703F000465200B6
:1006900043EB030313F4801F08BF013DF7D043EA87
:1006A0000603704794EA0C0F0CEA135518BF95EA3D
:1006B0000C0F0CD050EA410618BF52EA4306D1D1C4
:1006C00081EA030101F000414FF0000070BD50EAE3
:1006D000410606BF1046194652EA430619D094EA6D
:1006E0000C0F02D150EA013613D195EA0C0F05D157
:1006F00052EA03361CBF104619460AD181EA0301AB
:1007000001F0004141F0FE4141F470014FF0000062
:1007100070BD41F0FE4141F4780170BD70B54FF0FD
:10072000FF0C4CF4E06C1CEA11541DBF1CEA13557D
:1007300094EA0C0F95EA0C0F00F0A7F8A4EB05045F
:1007400081EA030E52EA03354FEA013100F0888056
:100750004FEA03334FF0805545EA131343EA12631F
:100760004FEA022245EA111545EA10654FEA0026D4
:100770000EF000419D4208BF964244F1FD0404F58D
:10078000407402D25B084FEA3202B61A65EB0305E9
:100790005B084FEA32024FF480104FF4002CB6EBA6
:1007A000020E75EB030E22BFB61A754640EA0C0026
:1007B0005B084FEA3202B6EB020E75EB030E22BF66
:1007C000B61A754640EA5C005B084FEA3202B6EBA7
:1007D000020E75EB030E22BFB61A754640EA9C0066
:1007E0005B084FEA3202B6EB020E75EB030E22BF36
:1007F000B61A754640EADC0055EA060E18D04FEAF4
:10080000051545EA16754FEA06164FEAC30343EA93
:1008100052734FEAC2025FEA1C1CC0D111F4801F60
:100820000BD141EA00014FF000004FF0004CB6E759
:1008300011F4801F04BF01430020B4F1FD0C88BFF8
:10084000BCF5E06F3FF6AFAEB5EB030C04BFB6EB03
:10085000020C5FEA500C50F1000041EB045170BDF6
:100860000EF0004E4EEA113114EB5C04C2BFD4EB23
:100870000C0541EA045170BD41F480114FF0000EA7
:10088000013C90E645EA060E8DE60CEA135594EA23
:100890000C0F08BF95EA0C0F3FF43BAF94EA0C0F26
:1008A0000AD150EA01347FF434AF95EA0C0F7FF49B
:1008B00025AF104619462CE795EA0C0F06D152EAEF
:1008C00003353FF4FDAE1046194622E750EA4106D3
:1008D00018BF52EA43067FF4C5AE50EA41047FF4E4
:1008E0000DAF52EA43057FF4EBAE12E74FF0FF3C49
:1008F00006E000BF4FF0010C02E000BF4FF0010C1A
:100900004DF804CD4FEA410C7FEA6C5C4FEA430C92
:1009100018BF7FEA6C5C1BD001B050EA410C0CBFE1
:1009200052EA430C91EA030F02BF90EA020F002043
:10093000704710F1000F91EA030F58BF994208BFAA
:1009400090422CBFD8176FEAE37040F00100704767
:100950004FEA410C7FEA6C5C02D150EA013C07D1BE
:100960004FEA430C7FEA6C5CD6D152EA033CD3D009
:100970005DF8040B704700BF8446104662468C4603
:100980001946634600E000BF01B5FFF7B7FF002836
:1009900048BF10F1000F01BD4DF808EDFFF7F4FF5F
:1009A0000CBF012000205DF808FB00BF4DF808EDEA
:1009B000FFF7EAFF34BF012000205DF808FB00BF0D
:1009C0004DF808EDFFF7E0FF94BF012000205DF82F
:1009D00008FB00BF4DF808EDFFF7CEFF94BF0120E4
:1009E00000205DF808FB00BF4DF808EDFFF7C4FFDD
:1009F00034BF012000205DF808FB00BF4FEA410230
:100A000012F5001215D211D56FF47873B3EB625260
:100A100012D94FEAC12343F0004343EA505311F087
:100A2000004F23FA02F018BF404270474FF0000019
:100A3000704750EA013005D111F0004008BF6FF057
:100A4000004070474FF00000704700BF80B586B08F
:100A500000AF07F1080300221A605A609A60DA605A
:100A60002E4B9B692D4A43F0040393612B4B9B69EA
:100A700003F004037B607B68284B9B69274A43F0A3
:100A800008039361254B9B6903F008033B603B68B7
:100A900000224FF40051224802F017FB4FF400539C
:100AA000BB600123FB6000233B6102237B6107F1F4
:100AB000080319461A4802F06DF941F60A03BB60B3
:100AC000184BFB6001233B6107F1080319461648E8
:100AD00002F060F900220021062002F024F906202D
:100AE00002F03DF900220121072002F01CF9072045
:100AF00002F035F900220221082002F014F9082042
:100B000002F02DF900220321092002F00CF909203E
:100B100002F025F900BF1837BD4680BD0010024025
:100B200000100140000021100008014080B586B08F
:100B300000AF7860396002237B617A6813469B00BE
:100B400013445B0005333B613A6813465B00134472
:100B50005B000333FB603B69002B11DB3B697F2BA0
:100B60000EDCFB68002B0BDBFB683F2B08DC3B69D2
:100B700018B2FB6819B27B691AB2012301F053FA6B
:100B800000BF1837BD4680BD80B586B000AF0023DA
:100B90007B614EE00023FB7237E003F0A3FC0246CA
:100BA000284B83FB02139910D317C91A0B46DB009D
:100BB0000B445B00D31A3B6103F094FC03465A429A
:100BC00003F01F0302F01F0258BF5342FB600123D2
:100BD000FB7200237B6014E01B4A7B6852F82330D1
:100BE0003A699A420AD1184A7B68013352F8233095
:100BF000FA689A4202D10023FB7206E07B68013357
:100C00007B607A687B699A42E6DBFB7A83F00103BA
:100C1000DBB2002BC1D10C497B693A6941F8232032
:100C200009497B690133FA6841F823207B69013364
:100C30007B617B69012BADDD00BF00BF1837BD466E
:100C400080BD00BF398EE338A400002080B582B09B
:100C500000AF00237B601EE0134A7B6852F823300C
:100C6000B3F1FF3F14D0104A7B68013352F82330B0
:100C7000B3F1FF3F0CD00C4A7B6852F823200A499D
:100C80007B68013351F8233019461046FFF74EFFB9
:100C90007B6801337B607B68012BDDDD00BF00BF1B
:100CA0000837BD4680BD00BFA400002080B485B0D9
:100CB00000AF786039600023FB6013E00E4AFB68E8
:100CC00052F823307A689A4209D10B4AFB68013303
:100CD00052F823303A689A4201D1FB6807E0FB687A
:100CE0000133FB60FB68012BE8DD4FF0FF33184652
:100CF0001437BD4680BC7047A400002080B483B088
:100D000000AF7860084A7B684FF0FF3142F823104B
:100D1000054A7B6801334FF0FF3142F8231000BFD2
:100D20000C37BD4680BC7047A400002000000000C6
:100D30002DE9B0438CB002AF786039607B685A1CF3
:100D400013469B0013445B003B623B685A1C1346EE
:100D50005B0013445B00FB610423BB613B6A18B278
:100D6000FB6919B2BB691AB2012301F05CF96FF09B
:100D70002C037B611E233B617B697B6278E0386AD0
:100D8000FFF738FB04460D46B869FFF733FB804692
:100D90008946786AFFF72EFB3BA3D3E90023FFF7D0
:100DA00093FB02460B46104619464FF00002384BA3
:100DB000FFF7B4FC02460B461046194604F050FDFE
:100DC00002460B4640464946FFF77EFB02460B466D
:100DD00020462946FFF7C2F902460B46104619463F
:100DE000FFF70CFE0346FB60F869FFF703FB0446C0
:100DF0000D46B869FFF7FEFA80468946786AFFF724
:100E0000F9FA21A3D3E90023FFF75EFB02460B4664
:100E1000104619464FF000021D4BFFF77FFC0246BB
:100E20000B461046194604F061FD02460B4640464B
:100E30004946FFF749FB02460B4620462946FFF785
:100E40008DF902460B4610461946FFF7D7FD0346BB
:100E5000BB603B6A98B2FB6999B2FB689AB2BB6807
:100E60009BB20024009400F05CFE7B6A01337B623D
:100E70007A6A3B699A4282DD00BF00BF2837BD46CF
:100E8000BDE8B083AFF30080182D4454FB21094026
:100E90000080664080B582B000AF01F03FFE786010
:100EA0002F4B1B687A68D31A322B54D94FF4006148
:100EB0002C4802F0F3F80346002B08D12A4B1B689C
:100EC000002B04DD284B1B68013B274A13600221DD
:100ED000244802F0E3F80346002B08D1224B1B689C
:100EE000082B04DC204B1B6801331F4A13604FF4AE
:100EF00080511C4802F0D2F80346002B08D11B4B4E
:100F00001B68002B04DD194B1B68013B174A13605B
:100F10000821144802F0C2F80346002B08D1134BF5
:100F20001B680A2B04DC114B1B6801330F4A13604A
:100F30000E4B1B680C4A126811461846FFF7B6FEA6
:100F400038603B68B3F1FF3F02D03868FFF7D6FE48
:100F5000034A7B68136000BF0837BD4680BD00BFF1
:100F6000C0000020000801401C00002018000020E4
:100F700080B588B002AF00237B6100233B618023F2
:100F8000FB604023BB6001237B6001237B807B8867
:100F900001937B680093BB68FA683969786901F04E
:100FA00051FA00BF1837BD4680BD000090B58FB024
:100FB00002AF0423FB610323BB6101237B61002398
:100FC000FB6257E00023BB624EE02E49FA6A1346EB
:100FD0005B011344CA18BB6A13441B78002B40D032
:100FE000BB6AFA6902FB03F33B61FB6ABA6902FB65
:100FF00003F3FB60FB69BB60BB697B603B6998B234
:10100000FB6899B2BB689AB27B689CB27B699BB261
:101010000093234600F07DFEFB6801337B6219E0FC
:101020003B6901333B620BE03B6A9BB27A6A91B247
:101030007A6992B2184600F05DFC3B6A01333B626C
:101040003A69BB681344013B3A6A9A42ECDB7B6A1B
:1010500001337B62FA687B681344013B7A6A9A42E7
:10106000DEDBBB6A0133BB62BB6A1F2BADDDFB6AF3
:101070000133FB62FB6A112BA4DD00BF00BF3437D4
:10108000BD4690BD4CA1000880B483B000AF0023E2
:101090007B6013E00E4A7B6852F82330B3F1FF3FC8
:1010A00009D00B4A7B68013352F82330B3F1FF3F7C
:1010B00001D0012306E07B6801337B607B68012B54
:1010C000E8DD002318460C37BD4680BC704700BFE2
:1010D000A400002080B500AF002000F0F3FB1E212B
:1010E000142000F065FC01220549064800F0F4FCDC
:1010F00000F0BAFB4FF0FF3001F01AFD00BF80BDD9
:1011000008000020B068000880B500AF002000F0A3
:10111000D9FBFFF79BFD084B1B68084A1268114674
:101120001846FFF705FEFFF741FFFFF721FF00F02C
:101130009BFB00BF80BD00BF180000201C000020EA
:1011400080B58AB002AF01F091FC00F00DFAFFF714
:101150007DFC01F083FA00F0C3FAFFF715FD0A21C8
:10116000052000F025FC0122B049B14800F0B4FC94
:101170001E210A2000F01CFC0122AE49AE4800F0FE
:10118000ABFC00F071FB4FF4FA6001F0D1FC01F010
:1011900025F80A21282000F00BFC0122A749A848C5
:1011A00000F09AFC1921192000F002FC0122A34949
:1011B000A44800F091FC23210D2000F0F9FB01224E
:1011C0009E49A14800F088FC3221212000F0F0FB6C
:1011D00001229A499D4800F07FFC00F045FB4FF446
:1011E0007A6001F0A5FC00F0F9FF012300933C2395
:1011F0007B220221022000F08CFD0A210A2000F04F
:10120000D7FB01228D49924800F066FC00F02CFBD0
:101210000023FB77012300930A2364222D210A2057
:1012200000F077FD00F020FB27E0002300930A2365
:1012300064222D210A2000F06CFDFB7F9AB201236D
:1012400000930A232D210A2000F063FD00F00CFB1F
:101250001E21282000F0ACFBFB7F1A467D497E480A
:1012600003F040FA012271497B4800F035FCFB7F16
:101270000133FB77642001F05BFCFB7F642BD4D946
:10128000012300930A2364222D210A2000F041FD4E
:1012900000F0EAFA4FF47A7001F04AFC00F09EFF89
:1012A000012301933C23009380236C4A00210020FA
:1012B00000F0AEF900F0D8FA4FF4FA6001F038FC13
:1012C00000F08CFF0A210A2000F072FB012300933A
:1012D0003C237B220221022000F01BFD0122574902
:1012E0005F4800F0F9FB2621302000F061FB01226D
:1012F00052495C4800F0F0FB0123102226213C20DB
:1013000000F0BDFD00F0B0FA4FF4FA6001F010FCFF
:1013100000F064FF012300933C237B220221022082
:1013200000F0F7FC0A210A2000F042FB01224349A9
:101330004D4800F0D1FB0123102223215F2000F053
:101340009EFD00F091FA4FF47A7001F0F1FB00235A
:10135000BB773BE000F042FF012300933C237B225C
:101360000221022000F0D5FC0A210A2000F020FB17
:10137000012232493D4800F0AFFB012300930A23CC
:1013800064222D210A2000F0C4FCBB7F9AB2012305
:1013900000930A232D210A2000F025FDBA7F3B1D72
:1013A0003349184603F09EF91E21502000F000FB3F
:1013B0003B1D01222149184600F08EFB00F054FA33
:1013C000BB7F0133BB77322001F0B2FBBB7F642BC4
:1013D000C0D900F003FF19211E2000F0E9FA012214
:1013E0001249244800F078FB00F03EFA4FF4FA600E
:1013F00001F09EFB00F0F2FE012301933C230093D9
:1014000080231D4A0021002000F002F900F02CFA90
:101410004FF47A7001F08CFB184A07F10C0392E844
:10142000030083E803000023BB6143E008000020C1
:10143000B868000810000020C06800080000002004
:10144000C8680008D4680008E4680008F468000868
:10145000FC68000810690008AC0000208C950008AA
:1014600018690008306900083469000848690008F4
:10147000546900085C6900088C91000870690008D4
:1014800000F0ACFEBB699B0020333B4453F8142CA6
:10149000012301933C23009380230021002000F0CE
:1014A000B7F800F0E1F940F6B83001F041FBBB6954
:1014B0000133BB61BB69012BE2DD00F08FFE192116
:1014C0001E2000F075FA01222349244800F004FB95
:1014D00000F0CAF94FF4FA6001F02AFB00F08FF82F
:1014E0004FF47A7001F024FB00F078FE01F016FB57
:1014F0000346184602F0C8FFFFF7CCFCFFF704FED6
:10150000174B1B68174A126811461846FFF7CEFBA7
:1015100078617B69B3F1FF3F02D07869FFF7EEFB9A
:10152000FFF7F2FDFFF7B0FD034683F00103DBB2E6
:10153000002B0DD0FFF7CEFD40F6B83001F0F8FAE1
:10154000FFF722FB064B01221A60064B01221A60AC
:10155000642001F0EDFACFE7080000206869000878
:10156000180000201C00002080B590B000AF07F1EB
:10157000180328220021184603F017F93B1D00220A
:101580001A605A609A60DA601A610123BB614FF4F5
:101590008033FB6100233B620123BB6202237B6338
:1015A0004FF48033BB634FF4E013FB6307F1180380
:1015B000184602F06DFB0346002B01D000F019F82D
:1015C0000F237B600223BB600023FB604FF480632A
:1015D0003B6100237B613B1D0221184602F0DAFDCE
:1015E0000346002B01D000F004F800BF4037BD4691
:1015F00080BD80B400AF72B600BF00BFFDE780B50C
:1016000000AF2E220021782000F06CFE00BF80BDCC
:1016100080B586B000AFBA601A460346FB810B4620
:10162000BB811346FB80B7F906300733002B00DA85
:101630000733DB103B820023FB750023BB8243E0B2
:1016400000237B822EE07B8A03F00703002B03D06C
:10165000FB7D5B00FB7512E0B7F91430B7F9102081
:1016600003FB02F2B7F91230002B00DA0733DB106C
:101670001BB213441A46BB6813441B78FB7597F9D9
:101680001730002B08DAFA897B8A13449BB2B98998
:10169000BA8C184600F02EF9B7F912309BB201331C
:1016A0009BB27B82B7F91220B7F906309A42CADBA7
:1016B000B7F914309BB201339BB2BB82B7F90C303F
:1016C0009BB201339BB2BB81B7F91420B7F920302C
:1016D0009A42B5DB00BF00BF1837BD4680BD000091
:1016E00080B582B000AF00F083FD44F62063012294
:1016F00078215B4801F044FF0346002B01D0002312
:10170000A9E040F6C4137B6002E07B68013B7B608C
:101710007B68002BF9D1AE220021782000F0E2FD99
:1017200020220021782000F0DDFD10220021782009
:1017300000F0D8FDB0220021782000F0D3FDC822AF
:101740000021782000F0CEFD00220021782000F05A
:10175000C9FD10220021782000F0C4FD40220021A4
:10176000782000F0BFFD81220021782000F0BAFD32
:10177000FF220021782000F0B5FDA1220021782071
:1017800000F0B0FDA6220021782000F0ABFDA822D9
:101790000021782000F0A6FD3F220021782000F0F3
:1017A000A1FDA4220021782000F09CFDD32200217D
:1017B000782000F097FD00220021782000F092FDB3
:1017C000D5220021782000F08DFDF0220021782024
:1017D00000F088FDD9220021782000F083FD22222C
:1017E0000021782000F07EFDDA220021782000F030
:1017F00079FD12220021782000F074FDDB22002107
:10180000782000F06FFD20220021782000F06AFD92
:101810008D220021782000F065FD1422002178201F
:1018200000F060FDAF220021782000F05BFD2E2249
:101830000021782000F056FD002000F043F800F071
:1018400013F8084B00221A80064B00225A80054BE1
:1018500001225A71012318460837BD4680BD00BFDA
:10186000CC040020C404002080B582B000AF002367
:10187000FB711DE0FB79503BDBB21A46002178205A
:1018800000F030FD00220021782000F02BFD102216
:101890000021782000F026FDFB79DB01084A1A447C
:1018A00080234021782000F0B7FCFB790133FB71E5
:1018B000FB79072BDED900BF00BF0837BD4680BDCE
:1018C000C400002080B582B000AF0346FB80FB88D7
:1018D000002B01D1002300E0FF234FF48062194662
:1018E000034802F062FF00BF0837BD4680BD00BF5D
:1018F000C400002080B483B000AF0346FB800B46D9
:10190000BB8013467B80FB887F2B48D8BB883F2B4E
:1019100045D8254B1B79002B06D07B88002B0CBFAC
:1019200001230023DBB27B807B88012B1AD1FA884C
:10193000BB88DB0898B20346DB0113441B4AD35C27
:101940005AB2BB8803F00703012101FA03F35BB22B
:10195000134359B2FA880346DB011344C9B2134A50
:10196000D1541DE0FA88BB88DB0898B20346DB013E
:1019700013440E4AD35C5AB2BB8803F0070301211B
:1019800001FA03F35BB2DB435BB2134059B2FA884E
:101990000346DB011344C9B2044AD15400E000BF3E
:1019A0000C37BD4680BC7047C4040020C400002032
:1019B00080B483B000AF03460A46FB801346BB8069
:1019C000054AFB881380044ABB88538000BF0C374C
:1019D000BD4680BC704700BFC404002080B586B0FF
:1019E00000AF03463960FB711346BB80394B1B883F
:1019F0001A463B681B7813447F2B07DC354B5B880A
:101A00001A463B685B7813443F2B01DD00235DE001
:101A100000237B614BE03B685A68FB79203B3968C7
:101A2000497801FB03F319467B690B445B001344BF
:101A30001B88FB6000233B6130E0FA683B6902FAD7
:101A400003F303F40043002B10D0224B1A883B69A8
:101A50009BB2134498B21F4B5A887B699BB21344C4
:101A60009BB2BA881946FFF745FF14E0194B1A8854
:101A70003B699BB2134498B2164B5A887B699BB260
:101A8000134499B2BB88002B0CBF01230023DBB2A7
:101A90001A46FFF72FFF3B6901333B613B681B7818
:101AA0001A463B699342C8D37B6901337B613B682B
:101AB0005B781A467B699342ADD3064B1B883A6824
:101AC000127813449AB2034B1A80FB7918461837E0
:101AD000BD4680BDC404002080B584B000AFF8606E
:101AE000B9601346FB8012E0FB681B78FA88B9687E
:101AF0001846FFF773FF03461A46FB681B789A42A5
:101B000002D0FB681B7808E0FB680133FB60FB68D0
:101B10001B78002BE8D1FB681B7818461037BD46B0
:101B200080BD90B587B000AF0446084611461A46FE
:101B30002346FB800346BB800B467B8013463B80DD
:101B4000FB887F2B01D97F23FB807B887F2B01D9EA
:101B50007F237B80BB883F2B01D93F23BB803B8801
:101B60003F2B01D93F233B80FA887B889A4205D2DC
:101B70007A88FB88D31A9BB21BB204E0FA887B8870
:101B8000D31A9BB21BB27B82BA883B889A4205D299
:101B90003A88BB88D31A9BB21BB204E0BA883B8850
:101BA000D31A9BB21BB23B82FA887B889A4201D23D
:101BB000012301E04FF0FF33FB81BA883B889A4252
:101BC00001D2012301E04FF0FF33BB81B7F91220AE
:101BD000B7F910309A4206DDB7F91230DA0F134424
:101BE0005B101BB206E0B7F91030DA0F13445B103C
:101BF0005B421BB2FB82B7F91230002B28D13A8826
:101C0000BB889A4205D23B883B81BB883B803B899D
:101C1000BB807A88FB889A4205D27B883B81FB880F
:101C20007B803B89FB80BB88BB820BE0B98A3A8D05
:101C3000FB881846FFF75EFEB7F914309BB20133FC
:101C40009BB2BB82B7F914203B889A42EEDD5DE07F
:101C5000B7F91030002B28D13A88BB889A4205D2B8
:101C60003B883B81BB883B803B89BB807A88FB8873
:101C70009A4205D27B883B81FB887B803B89FB8035
:101C8000FB88BB820BE0BB8A3A8DB9881846FFF708
:101C900031FEB7F914309BB201339BB2BB82B7F966
:101CA00014207B889A42EEDD30E03A8DB988FB88BB
:101CB0001846FFF71FFEFA887B889A4203D1BA883C
:101CC0003B889A4221D0FB8A7B81B7F90A20B7F979
:101CD00012305B429A4208DDFA8A3B8AD31A9BB2E1
:101CE000FB82FA89FB881344FB80B7F90A20B7F915
:101CF00010309A42D9DAFA8A7B8A13449BB2FB826B
:101D0000BA89BB881344BB80CFE700BF1C37BD46F0
:101D100090BD90B585B002AF0446084611461A46FC
:101D20002346FB800346BB800B467B8013463B80EB
:101D3000FB887F2B53D8BB883F2B50D8FA887B88F1
:101D400013447F2B03DDFB88C3F180037B80BA88BB
:101D50003B8813443F2B03DDBB88C3F140033B802A
:101D6000FA887B8813449AB2BC88B988F8883B8B80
:101D700000932346FFF7D5FEBA883B88134499B2F7
:101D8000FA887B8813449CB2BA883B8813449AB281
:101D9000F8883B8B009313462246FFF7C2FEBA88B1
:101DA0003B8813449CB2FA88B988F8883B8B00932F
:101DB0002346FFF7B6FEFA887B88134498B2FA8868
:101DC0007B8813449CB2BA883B8813449AB2B98882
:101DD0003B8B009313462246FFF7A3FE00E000BFB3
:101DE0000C37BD4690BD90B587B002AF044608469B
:101DF00011461A462346FB800346BB800B467B8078
:101E000013463B80FB887F2B35D8BB883F2B32D8CD
:101E1000FA887B8813447F2B03DDFB88C3F18003A2
:101E20007B80BA883B8813443F2B03DDBB88C3F11A
:101E300040033B800023FB7317E0FB7B9AB2BB8817
:101E4000134499B2FA887B8813449CB2FB7B9AB204
:101E5000BB8813449AB2F8883B8C00931346224601
:101E6000FFF75FFEFB7B0133FB73FB7B9BB23A8882
:101E70009A42E2D200E000BF1437BD4690BD90B553
:101E800087B000AF0446084611461A462346FB8039
:101E90000346BB800B467B8013463B807B88C3F1A7
:101EA00001039BB2FB820123BB827B881A46D203CB
:101EB000D31A5B009BB27B8200233B827B88FB8131
:101EC000F888BA887B8813449BB23A881946FFF792
:101ED00011FDF888BA887B88D31A9BB23A881946D4
:101EE000FFF708FDFA887B8813449BB2B9883A88CB
:101EF0001846FFF7FFFCFA887B88D31A9BB2B98893
:101F00003A881846FFF7F6FC81E0B7F91630002B47
:101F10000EDBB7F90E309BB2013B9BB2FB817B8A93
:101F200002339BB27B82FA8A7B8A13449BB2FB8288
:101F3000B7F910309BB201339BB23B82BB8A0233AC
:101F40009BB2BB82FA8ABB8A13449BB2FB82FA889B
:101F50003B8A134498B2BA88FB8913449BB23A88EF
:101F60001946FFF7C7FCFA883B8AD31A98B2BA8899
:101F7000FB8913449BB23A881946FFF7BBFCFA88E9
:101F80003B8A134498B2BA88FB89D31A9BB23A8829
:101F90001946FFF7AFFCFA883B8AD31A98B2BA8881
:101FA000FB89D31A9BB23A881946FFF7A3FCFA883B
:101FB000FB89134498B2BA883B8A13449BB23A888F
:101FC0001946FFF797FCFA88FB89D31A98B2BA88AA
:101FD0003B8A13449BB23A881946FFF78BFCFA8878
:101FE000FB89134498B2BA883B8AD31A9BB23A88C9
:101FF0001946FFF77FFCFA88FB89D31A98B2BA8892
:102000003B8AD31A9BB23A881946FFF773FCB7F99B
:102010001020B7F90E309A42FFF677AF00BF00BF2D
:102020001C37BD4690BD90B589B002AF0446084646
:1020300011461A462346FB800346BB800B467B8035
:1020400013463B807B88C3F101039BB2FB820123D3
:10205000BB827B881A46D203D31A5B009BB27B8279
:1020600000233B827B88FB81F888BA887B881344F5
:102070009BB23A881946FFF73DFCF888BA887B88FE
:10208000D31A9BB23A881946FFF734FCFA887B884A
:1020900013449BB2B9883A881846FFF72BFCFA889C
:1020A0007B88D31A9BB2B9883A881846FFF722FC7E
:1020B000FA887B88D31A98B2B988FA887B88134447
:1020C0009AB2BC883B8800932346FFF72AFD79E04B
:1020D000B7F91630002B0EDBB7F90E309BB2013B7F
:1020E0009BB2FB817B8A02339BB27B82FA8A7B8A1A
:1020F00013449BB2FB82B7F910309BB201339BB201
:102100003B82BB8A02339BB2BB82FA8ABB8A1344EE
:102110009BB2FB82FA883B8AD31A98B2BA88FB89B1
:10212000134499B2FA883B8A13449CB2BA88FB895B
:1021300013449AB23B88009313462246FFF7F1FC02
:10214000FA883B8A134498B2BA88FB89D31A99B2A9
:10215000FA883B8AD31A9CB2BA88FB89D31A9AB2FE
:102160003B88009313462246FFF7DBFCFA88FB8985
:10217000134498B2BA883B8A134499B2FA88FB890F
:10218000D31A9CB2BA883B8A13449AB23B88009314
:1021900013462246FFF7C5FCFA88FB89134498B220
:1021A000BA883B8AD31A99B2FA88FB89D31A9CB2AF
:1021B000BA883B8AD31A9AB23B88009313462246C8
:1021C000FFF7AFFCB7F91020B7F90E309A42FFF6CF
:1021D0007FAF00BF00BF1C37BD4690BD80B500AFCC
:1021E0000020FFF76FFBFFF73FFB00BF80BD000043
:1021F00080B483B000AF074B7B6002E07B68013B9B
:102200007B607B68002BF9D100BF00BF0C37BD4657
:1022100080BC704790D0030090B5C7B002AF0446B1
:10222000084607F58871A1F588710A60194607F517
:102230008873A3F2091322461A7007F58873A3F571
:10224000857302461A7007F58873A3F586730A46EC
:102250001A8007F58873A3F5827307F58872A2F5D3
:10226000857212781A70002387F80F3115E097F8FD
:102270000F3107F58872A2F5887212681A4497F830
:102280000F310133117807F58872A2F58272D154AB
:1022900097F80F31013387F80F3197F80F319BB260
:1022A00007F58872A2F5867212889A42DFD807F580
:1022B0008873A3F209131B7899B207F58873A3F505
:1022C00086731B8801339BB207F10C020A20009031
:1022D000034801F057F800BF07F58A77BD4690BD67
:1022E000CC04002080B586B002AF0346FB710B46DC
:1022F000BB7113467B71BB793B737B797B73FB7935
:1023000099B207F10C020A2300930223034801F05B
:1023100039F800BF1037BD4680BD00BFCC04002097
:102320002DE9B04388B000AFF860B9607A603B60D7
:102330003B68FB6174E0F868FEF75CF804460D4604
:102340007868FEF757F880468946F869FEF752F834
:1023500039A3D3E90023FEF7B7F802460B4610462F
:1023600019464FF00002364BFEF7D8F902460B46ED
:102370001046194603F074FA02460B464046494699
:10238000FEF7A2F802460B4620462946FDF7E6FE78
:1023900002460B4610461946FEF730FB0346BB616A
:1023A000B868FEF727F804460D467868FEF722F86D
:1023B00080468946F869FEF71DF81FA3D3E900237C
:1023C000FEF782F802460B46104619464FF000020F
:1023D0001B4BFEF7A3F902460B461046194603F0C5
:1023E00085FA02460B4640464946FEF76DF802461E
:1023F0000B4620462946FDF7B1FE02460B46104625
:102400001946FEF7FBFA03467B61BB699BB27A690A
:1024100091B2BA8F1846FFF76DFAFB690133FB6181
:10242000FA69BB6B9A4286DB00BF00BF2037BD460E
:10243000BDE8B083AFF30080182D4454FB21094060
:102440000080664090B587B002AFF860B9607A60EE
:102450003B60FB689AB23B6A9BB2134498B2BB687C
:1024600099B2FB689AB27B689BB213449AB23B6AFA
:102470009BB25B009BB2D31A9AB2BB689CB2BB8C76
:1024800000932346FFF74DFBFB689AB23B6A9BB271
:10249000134498B2BB689AB23B689BB213449BB298
:1024A000013B99B2FB689AB27B689BB213449AB223
:1024B0003B6A9BB25B009BB2D31A9CB2BB689AB2D8
:1024C0003B689BB213449BB2013B9AB2BB8C009316
:1024D00013462246FFF725FBFB6898B2BB689AB209
:1024E0003B6A9BB2134499B2FB689CB2BB689AB238
:1024F0003B689BB213449AB23B6A9BB25B009BB2AF
:10250000D31A9AB2BB8C009313462246FFF709FBFD
:10251000FB689AB27B689BB213449BB2013B98B2B2
:10252000BB689AB23B6A9BB2134499B2FB689AB2F9
:102530007B689BB213449BB2013B9CB2BB689AB2CE
:102540003B689BB213449AB23B6A9BB25B009BB25E
:10255000D31A9AB2BB8C009313462246FFF7E1FAD6
:10256000FA683B6AD018BA683B6AD118BB8C0193F1
:102570004FF487730093B4233A6AFFF7D1FEFA68E9
:102580007B681A443B6AD31A581EBA683B6AD11852
:10259000BB8C01934FF4B47300934FF487733A6A82
:1025A000FFF7BEFEFA683B6AD018BA683B681A4467
:1025B0003B6AD31A591EBB8C0193B42300935A2350
:1025C0003A6AFFF7ADFEFA687B681A443B6AD31A91
:1025D000581EBA683B681A443B6AD31A591EBB8C12
:1025E00001935A23009300233A6AFFF799FE00BF34
:1025F0001437BD4690BD000080B485B000AF154BC8
:102600009B69144A43F001039361124B9B6903F0E9
:102610000103BB60BB680F4BDB690E4A43F080537C
:10262000D3610C4BDB6903F080537B607B680A4B02
:102630005B68FB60FB6823F0E063FB60FB6843F0D2
:102640000073FB60044AFB68536000BF1437BD464B
:1026500080BC7047001002400000014080B500AF10
:10266000124B134A1A60114B124A5A600F4B002248
:102670009A600E4B0022DA600C4B4FF480421A61D4
:102680000A4B00225A61094B00229A61074B002233
:10269000DA61064B00221A62044800F02FFD03465F
:1026A000002B01D0FEF7A5FF00BF80BDCC040020A9
:1026B00000540040801A060080B588B000AF7860F2
:1026C00007F1100300221A605A609A60DA607B6892
:1026D0001B68154A934223D1144B9B69134A43F05C
:1026E00008039361114B9B6903F00803FB60FB68CF
:1026F000C0233B6112237B610323FB6107F11003BD
:1027000019460B4800F046FB084BDB69074A43F4C7
:102710000013D361054BDB6903F40013BB60BB6896
:1027200000BF2037BD4680BD00540040001002406D
:10273000000C014080B400AF00BFFDE780B400AFE3
:1027400000BFFDE780B400AF00BFFDE780B400AF7D
:1027500000BFFDE780B400AF00BFFDE780B400AF6D
:1027600000BFBD4680BC704780B400AF00BFBD460F
:1027700080BC704780B400AF00BFBD4680BC7047CE
:1027800080B500AF00F0B8F900BF80BD80B588B05B
:1027900000AFBA607B600346FB730B46BB8100F061
:1027A000BDF9F861204B5A69BB891340002B37D023
:1027B0001D4ABB895361FB7B1C4A52F82330FA69DE
:1027C000D31AC82B2CD9FB7B1849FA6941F823206E
:1027D000174B1B68BA681344BB61164B1B687A68B9
:1027E00013447B61BB69002B1ADBBB69112B17DC1F
:1027F0007B69002B14DB7B691F2B11DC0E497A6986
:102800001346DB0013445B00BA69134451F82330CC
:10281000002B05D1064ABB691360064A7B69136029
:1028200000BF2037BD4680BD0004014020050020C8
:10283000180000201C0000204CA1000880B500AF4B
:102840004FF0FF33002201210020FFF79FFF00BF60
:1028500080BD80B500AF0123002202210120FFF7D7
:1028600095FF00BF80BD80B500AF00234FF0FF3261
:1028700004210220FFF78AFF00BF80BD80B500AFB2
:102880000023012208210320FFF780FF00BF80BD45
:1028900080B400AF01231846BD4680BC704780B5A8
:1028A00082B000AF7860396001F0CEFF0346162297
:1028B0001A604FF0FF3318460837BD4680BD80B51B
:1028C00082B000AF78604FF0FF317868FFF7E7FF24
:1028D00000BFFDE780B586B000AFF860B9607A60F0
:1028E00000237B610AE0AFF300800146BB685A1CFD
:1028F000BA60CAB21A707B6901337B617A697B68FE
:102900009A42F0DB7B6818461837BD4680BD80B51B
:1029100086B000AFF860B9607A6000237B6109E09F
:10292000BB685A1CBA601B781846AFF300807B69FD
:1029300001337B617A697B689A42F1DB7B681846D8
:102940001837BD4680BD80B483B000AF78604FF0CB
:10295000FF3318460C37BD4680BC704780B483B047
:1029600000AF786039603B684FF400525A60002332
:1029700018460C37BD4680BC704780B483B000AFAA
:102980007860012318460C37BD4680BC704780B480
:1029900085B000AFF860B9607A600023184614373C
:1029A000BD4680BC7047000080B586B000AF78603F
:1029B000144A154BD31A7B617B693B61134B1B682F
:1029C000002B02D1114B124A1A60104B1A687B6817
:1029D00013443A699A4207D201F036FF03460C22AB
:1029E0001A604FF0FF3309E0084B1B68FB60074B90
:1029F0001A687B681344054A1360FB681846183749
:102A0000BD4680BD005000200004000030050020BD
:102A10008806002080B400AF00BFBD4680BC704770
:102A2000FFF7F8FF0B480C490C4A002302E0D4588A
:102A3000C4500433C4188C42F9D3094A094C00230A
:102A400001E013600432A242FBD301F003FFFEF762
:102A500077FB7047000000208800002088A600084F
:102A60008800002084060020FEE7000080B500AF4B
:102A7000084B1B68074A43F010031360032000F063
:102A800047F90F2000F008F8FFF7B6FD00231846BD
:102A900080BD00BF0020024080B582B000AF7860EA
:102AA000124B1A68124B1B7819464FF47A73B3FB1A
:102AB000F1F3B2FBF3F3184600F05FF90346002B85
:102AC00001D001230EE07B680F2B0AD80022796821
:102AD0004FF0FF3000F027F9064A7B6813600023AF
:102AE00000E0012318460837BD4680BD20000020C5
:102AF000280000202400002080B400AF054B1B7884
:102B00001A46054B1B681344034A136000BFBD46B9
:102B100080BC7047280000203405002080B400AF3E
:102B2000024B1B681846BD4680BC70473405002028
:102B300080B584B000AF7860FFF7F0FFB8607B68C5
:102B4000FB60FB68B3F1FF3F05D00A4B1B781A46C8
:102B5000FB681344FB6000BFFFF7E0FF0246BB6861
:102B6000D31AFA689A42F7D800BF00BF1037BD46A3
:102B700080BD00BF2800002080B485B000AF786021
:102B80007B6803F00703FB600C4BDB68BB60BA6833
:102B90004FF6FF031340BB60FB681A02BB68134388
:102BA00043F0BF6343F40033BB60044ABB68D360A7
:102BB00000BF1437BD4680BC704700BF00ED00E089
:102BC00080B400AF044BDB681B0A03F00703184610
:102BD000BD4680BC704700BF00ED00E080B483B00C
:102BE00000AF0346FB7197F90730002B0BDBFB7935
:102BF00003F01F02064997F907305B09012000FA2C
:102C000002F241F8232000BF0C37BD4680BC70475C
:102C100000E100E080B483B000AF03463960FB718F
:102C200097F90730002B0ADB3B68DAB20C4997F9B9
:102C300007301201D2B20B4483F800230AE03B684C
:102C4000DAB20849FB7903F00F03043B1201D2B258
:102C50000B441A7600BF0C37BD4680BC704700BFDE
:102C600000E100E000ED00E080B489B000AFF86062
:102C7000B9607A60FB6803F00703FB61FB69C3F18D
:102C80000703042B28BF0423BB61FB690433062B15
:102C900002D9FB69033B00E000237B614FF0FF3268
:102CA000BB6902FA03F3DA43BB681A407B699A40B6
:102CB0004FF0FF317B6901FA03F3D9437B680B4086
:102CC000134318462437BD4680BC704780B582B098
:102CD00000AF78607B68013BB3F1807F01D30123B3
:102CE0000FE00A4A7B68013B53600F214FF0FF3031
:102CF000FFF790FF054B00229A60044B07221A60F1
:102D0000002318460837BD4680BD00BF10E000E034
:102D100080B582B000AF78607868FFF72DFF00BF04
:102D20000837BD4680BD80B586B000AF0346B960A8
:102D30007A60FB7300237B61FFF742FF78617A685A
:102D4000B9687869FFF790FF024697F90F3011468E
:102D50001846FFF75FFF00BF1837BD4680BD80B53E
:102D600082B000AF0346FB7197F907301846FFF7B2
:102D700035FF00BF0837BD4680BD80B582B000AFCB
:102D800078607868FFF7A2FF034618460837BD460B
:102D900080BD000080B48BB000AF78603960002344
:102DA0007B6200233B6269E101227B6A02FA03F342
:102DB000FB613B681B68FA691340BB61BA69FB6938
:102DC0009A4240F058813B685B689A4A93425ED0D1
:102DD000984A934275D8984A934258D0964A93425B
:102DE0006FD8964A934252D0944A934269D8944AF3
:102DF00093424CD0924A934263D8924A934246D02F
:102E0000904A93425DD8122B2AD8122B59D801A28E
:102E100052F823F08F2E0008692E00087B2E000840
:102E2000BD2E0008C32E0008C32E0008C32E0008C4
:102E3000C32E0008C32E0008C32E0008C32E0008AE
:102E4000C32E0008C32E0008C32E0008C32E00089E
:102E5000C32E0008C32E0008712E0008852E00081E
:102E6000794A934213D02CE03B68DB683B6229E04F
:102E70003B68DB6804333B6224E03B68DB68083373
:102E80003B621FE03B68DB680C333B621AE03B6847
:102E90009B68002B02D104233B6213E03B689B68D4
:102EA000012B05D108233B627B68FA691A6109E0AE
:102EB00008233B627B68FA695A6103E000233B62A6
:102EC00000E000BFBB69FF2B01D87B6801E07B6895
:102ED00004337B61BB69FF2B02D87B6A9B0002E055
:102EE0007B6A083B9B003B617B691A680F213B6949
:102EF00001FA03F3DB431A40396A3B6901FA03F331
:102F00001A437B691A603B685B6803F08053002BAF
:102F100000F0B1804D4B9B694C4A43F00103936133
:102F20004A4B9B6903F00103BB60BB68484A7B6A5C
:102F30009B08023352F82330FB607B6A03F00303E3
:102F40009B000F2202FA03F3DB43FA681340FB6095
:102F50007B68404A934213D07B683F4A93420DD02E
:102F60007B683E4A934207D07B683D4A934201D139
:102F7000032306E0042304E0022302E0012300E02F
:102F800000237A6A02F0030292009340FA68134326
:102F9000FB602F497B6A9B080233FA6841F82320C3
:102FA0003B685B6803F48013002B06D02D4B9A68B6
:102FB0002C49BB6913438B6006E02A4B9A68BB69B6
:102FC000DB43284913408B603B685B6803F40013C4
:102FD000002B06D0234BDA682249BB691343CB6030
:102FE00006E0204BDA68BB69DB431E491340CB6027
:102FF0003B685B6803F40033002B06D0194B5A681A
:103000001849BB6913434B6006E0164B5A68BB690D
:10301000DB43144913404B603B685B6803F4803327
:10302000002B21D00F4B1A680E49BB6913430B606C
:1030300021E000BF0000321000003110000022101B
:1030400000002110000012100000111000100240BA
:103050000000014000080140000C01400010014048
:1030600000140140000401400B4B1A68BB69DB43AC
:10307000094913400B607B6A01337B623B681A6825
:103080007B6A22FA03F3002B7FF48EAE00BF00BFF1
:103090002C37BD4680BC70470004014080B485B029
:1030A00000AF78600B467B807B689A687B88134012
:1030B000002B02D00123FB7301E00023FB73FB7B99
:1030C00018461437BD4680BC704780B483B000AF4B
:1030D00078600B467B8013467B707B78002B03D097
:1030E0007A887B681A6103E07B881A047B681A611E
:1030F00000BF0C37BD4680BC7047000080B584B06F
:1031000000AF78607B68002B01D101232BE17B6845
:1031100093F83D30DBB2002B06D17B68002283F8A8
:103120003C207868FFF7C8FA7B68242283F83D20AA
:103130007B681B681A687B681B6822F001021A60B2
:103140007B681B681A687B681B6842F400421A603F
:103150007B681B681A687B681B6822F400421A604F
:1031600001F060F9F8607B685B68814A934207D898
:10317000FB68804A934294BF01230023DBB206E040
:10318000FB687D4A934294BF01230023DBB2002BEE
:1031900001D00123E7E0FB68784AA2FB03239B0CE4
:1031A000BB607B681B685B6823F03F017B681B6822
:1031B000BA680A435A607B681B681B6A23F03F01A8
:1031C0007B685B686A4A934202D8BB68013309E0B6
:1031D000BB684FF4967202FB03F3694AA2FB032318
:1031E0009B0901337A6812680B4313627B681B6882
:1031F000DB6923F44F4222F0FF027B685B685C4985
:103200008B4219D8FB68591E7B685B685B00B1FB79
:10321000F3F3591C40F6FC730B40002B0AD0FB68FB
:10322000591E7B685B685B00B1FBF3F30133C3F3AA
:103230000B0351E004234FE07B689B68002B11D106
:10324000FB68581E7B6859680B465B000B44B0FB5B
:10325000F3F30133C3F30B03002B0CBF0123002353
:10326000DBB212E0FB68581E7B6859680B469B0076
:103270000B4499000B44B0FBF3F30133C3F30B038E
:10328000002B0CBF01230023DBB2002B01D0012354
:1032900022E07B689B68002B0ED1FB68581E7B6880
:1032A00059680B465B000B44B0FBF3F30133C3F3E7
:1032B0000B0343F400430FE0FB68581E7B6859681A
:1032C0000B469B000B4499000B44B0FBF3F3013316
:1032D000C3F30B0343F44043796809681343CB619C
:1032E0007B681B681B6823F0C0017B68DA697B6818
:1032F0001B6A1A437B681B680A431A607B681B6859
:103300009B6823F4034323F0FF037A6811697A680A
:10331000D26811437A6812680B4393607B681B681C
:10332000DB6823F0FF017B685A697B689B691A435D
:103330007B681B680A43DA607B681B681A687B68D5
:103340001B6842F001021A607B6800221A647B68E5
:10335000202283F83D207B6800221A637B680022CC
:1033600083F83E20002318461037BD4680BD00BFBD
:10337000A08601007F841E00FF083D0083DE1B4302
:10338000D34D621080B588B002AFF8607A601A46FB
:103390000B467B8113463B81FFF7C0FB7861FB68DE
:1033A00093F83D30DBB2202B40F0E0807B69009346
:1033B000192301227049F86800F092FA0346002BA5
:1033C00001D00223D3E0FB6893F83C30012B01D1FC
:1033D0000223CCE0FB68012283F83C20FB681B68D9
:1033E0001B6803F00103012B07D0FB681B681A68F8
:1033F000FB681B6842F001021A60FB681B681A68D0
:10340000FB681B6822F400621A60FB68212283F8C3
:103410003D20FB68102283F83E20FB6800221A64DE
:10342000FB687A685A62FB683A895A85FB685B8D4B
:103430009AB2FB681A85FB68504ADA6279897B691F
:103440003A6AF86800F0CAF90346002B01D001235C
:103450008DE000233B61FB681B685B693B61FB6897
:103460001B689B693B613B6966E07A69396AF86869
:1034700000F050FB0346002B0DD0FB681B6C042BA7
:1034800007D1FB681B681A68FB681B6842F400726E
:103490001A6001236BE0FB685B6A1A78FB681B68A3
:1034A0001A61FB685B6A5A1CFB685A62FB685B8D99
:1034B0009BB2013B9AB2FB685A85FB681B8D013BAE
:1034C0009AB2FB681A85FB681B685B6903F004030A
:1034D000042B1BD1FB681B8D002B17D0FB685B6A8C
:1034E0001A78FB681B681A61FB685B6A5A1CFB68E8
:1034F0005A62FB685B8D9BB2013B9AB2FB685A85AE
:10350000FB681B8D013B9AB2FB681A857A69396AA0
:10351000F86800F047FB0346002B0DD0FB681B6CDE
:10352000042B07D1FB681B681A68FB681B6842F410
:1035300000721A6001231AE0FB681B8D002B94D1E6
:10354000FB681B681A68FB681B6842F400721A600B
:10355000FB68202283F83D20FB68002283F83E2090
:10356000FB68002283F83C20002300E00223184679
:103570001837BD4680BD00BF020010000000FFFFED
:1035800080B58AB002AFF8607A603B600B467B8101
:10359000FFF7C4FAF8610023BB61FB6893F83D3084
:1035A000DBB2202B40F01181FB690093192301222B
:1035B0008849F86800F094F90346002B01D00223F3
:1035C00004E1FB6893F83C30012B01D10223FDE0BC
:1035D000FB68012283F83C20FB681B681B6803F032
:1035E0000103012B07D0FB681B681A68FB681B6886
:1035F00042F001021A60FB681B681A68FB681B68CE
:1036000022F400621A60FB68242283F83D20FB68E4
:1036100000221A64FB68704ADA62FB681B681A6849
:10362000FB681B6842F480721A60FB6900933B6878
:1036300000224FF00111F86800F052F90346002B08
:103640000DD0FB681B681B6803F48073B3F5807FA3
:1036500003D1FB684FF400721A640323B6E07B8940
:10366000DBB21A46FB681B6802F0FE021A61FFF724
:1036700055FAF861FB681B685B6903F00203022BD3
:103680000CBF01230023DBB2FB75FB681B685B6981
:1036900003F48063B3F5806F0CBF01230023DBB21A
:1036A000BB7525E0FFF73AFA0246FB69D31A3A6880
:1036B0009A4202D33B68002B03D1FB68A02283F817
:1036C0003D20FB681B685B6903F00203022B0CBF03
:1036D00001230023DBB2FB75FB681B685B6903F405
:1036E0008063B3F5806F0CBF01230023DBB2BB7591
:1036F000FB6893F83D30DBB2A02B05D0FB7D002B9F
:1037000002D1BB7D002BCDD0FB68202283F83D2069
:10371000FB681B685B6903F00203022B29D1FB687D
:103720001B681A68FB681B6842F400721A60002369
:103730003B61FB681B685B693B61FB681B689B69BD
:103740003B613B69FB690093192301222149F86819
:1037500000F0C6F80346002B01D0012336E0FB68D9
:10376000202283F83D20FB68002283F83C200023C0
:103770002CE0FB681B681A68FB681B6842F4007247
:103780001A60FB681B686FF480625A61FB690093E2
:10379000192301220F49F86800F0A2F80346002B14
:1037A00001D0012312E0BB690133BB61BA697B68B8
:1037B0009A42FFF432AFFB68202283F83D20FB6879
:1037C000002283F83C20012300E002231846203722
:1037D000BD4680BD020010000000FFFF80B588B02C
:1037E00002AFF8607A603B600B467B81FB68DB6A66
:1037F0007B617B69082B06D07B69012B03D07B6939
:1038000013F5803F08D1FB681B681A68FB681B68CA
:1038100042F480721A600BE0FB681B6B122B07D11D
:10382000FB681B681A68FB681B6842F480721A60A8
:103830003B6800937B6800224FF00111F86800F0AC
:103840004FF80346002B0DD0FB681B681B6803F480
:103850008073B3F5807F03D1FB684FF400721A6464
:10386000032335E0FB681B69B3F5804F08D17B89E2
:10387000DBB21A46FB681B6802F0FE021A611BE00D
:103880007B89DB11DBB203F00603DBB263F00F03CD
:10389000DAB2FB681B681A613B687A680E49F868FF
:1038A00000F098F80346002B01D0012310E07B893B
:1038B000DAB2FB681B681A613B687A680749F868E6
:1038C00000F088F80346002B01D0012300E000231C
:1038D00018461837BD4680BD0800010002000100EF
:1038E00080B584B000AFF860B9603B601346FB71EF
:1038F00048E03B68B3F1FF3F44D0FFF70FF90246C1
:10390000BB69D31A3A689A4202D33B68002B39D17B
:10391000BB681B0CDBB2012B0DD1FB681B685B691C
:10392000DA43BB6813409BB2002B0CBF012300237A
:10393000DBB21A460CE0FB681B689B69DA43BB6884
:1039400013409BB2002B0CBF01230023DBB21A46AD
:10395000FB799A4216D1FB6800221A63FB68202289
:1039600083F83D20FB68002283F83E20FB681B6C37
:1039700043F02002FB681A64FB68002283F83C20B5
:10398000012323E0BB681B0CDBB2012B0DD1FB68CC
:103990001B685B69DA43BB6813409BB2002B0CBF0A
:1039A00001230023DBB21A460CE0FB681B689B690D
:1039B000DA43BB6813409BB2002B0CBF01230023EA
:1039C000DBB21A46FB799A4293D00023184610378F
:1039D000BD4680BD80B584B000AFF860B9607A6044
:1039E0003B6071E0FB681B685B6903F48063B3F5BF
:1039F000806F23D1FB681B681A68FB681B6842F460
:103A000000721A60FB681B686FF480625A61FB6881
:103A100000221A63FB68202283F83D20FB68002205
:103A200083F83E20FB681B6C43F00402FB681A64B9
:103A3000FB68002283F83C20012367E07B68B3F138
:103A4000FF3F41D0FFF76AF802463B68D31A7A6815
:103A50009A4202D37B68002B36D1BB681B0CDBB2C9
:103A6000012B0CD1FB681B685B69DA43BB68134010
:103A70009BB2002B14BF01230023DBB20BE0FB68D9
:103A80001B689B69DA43BB6813409BB2002B14BFD1
:103A900001230023DBB2002B16D0FB6800221A633F
:103AA000FB68202283F83D20FB68002283F83E203B
:103AB000FB681B6C43F02002FB681A64FB68002261
:103AC00083F83C20012321E0BB681B0CDBB2012BF7
:103AD0000CD1FB681B685B69DA43BB6813409BB27F
:103AE000002B14BF01230023DBB20BE0FB681B6833
:103AF0009B69DA43BB6813409BB2002B14BF0123C0
:103B00000023DBB2002B7FF46DAF00231846103783
:103B1000BD4680BD80B584B000AFF860B9607A6002
:103B200034E0F86800F086F80346002B01D001234A
:103B300034E0BB68B3F1FF3F28D0FEF7EFFF024649
:103B40007B68D31ABA689A4202D3BB68002B1DD196
:103B5000FB681B685B6903F08003802B16D0FB6851
:103B600000221A63FB68202283F83D20FB680022B4
:103B700083F83E20FB681B6C43F02002FB681A644C
:103B8000FB68002283F83C20012307E0FB681B68E8
:103B90005B6903F08003802BC3D1002318461037E4
:103BA000BD4680BD80B584B000AFF860B9607A6072
:103BB00034E0F86800F03EF80346002B01D0012302
:103BC00034E0BB68B3F1FF3F28D0FEF7A7FF024601
:103BD0007B68D31ABA689A4202D3BB68002B1DD106
:103BE000FB681B685B6903F00403042B16D0FB68B9
:103BF00000221A63FB68202283F83D20FB68002224
:103C000083F83E20FB681B6C43F02002FB681A64BB
:103C1000FB68002283F83C20012307E0FB681B6857
:103C20005B6903F00403042BC3D10023184610374B
:103C3000BD4680BD80B483B000AF78607B681B68F0
:103C40005B6903F48063B3F5806F1BD17B681B68ED
:103C50006FF480625A617B6800221A637B682022BD
:103C600083F83D207B68002283F83E207B681B6C34
:103C700043F004027B681A647B68002283F83C20CE
:103C8000012300E0002318460C37BD4680BC704776
:103C900080B586B000AF78607B68002B01D101232E
:103CA00072E27B681B6803F00103002B00F0878041
:103CB000924B5B6803F00C03042B0CD08F4B5B68BA
:103CC00003F00C03082B12D18C4B5B6803F4803398
:103CD000B3F5803F0BD1894B1B6803F40033002BF5
:103CE0006CD07B685B68002B68D101234CE27B6859
:103CF0005B68B3F5803F06D1804B1B687F4A43F475
:103D0000803313602EE07B685B68002B0CD17B4B0B
:103D10001B687A4A23F480331360784B1B68774A18
:103D200023F4802313601DE07B685B68B3F5A02F4C
:103D30000CD1724B1B68714A43F4802313606F4BA4
:103D40001B686E4A43F4803313600BE06B4B1B68B7
:103D50006A4A23F480331360684B1B68674A23F474
:103D6000802313607B685B68002B13D0FEF7D6FEC0
:103D7000386108E0FEF7D2FE02463B69D31A642B95
:103D800001D9032300E25D4B1B6803F40033002BD1
:103D9000F0D014E0FEF7C2FE386108E0FEF7BEFE88
:103DA00002463B69D31A642B01D90323ECE1534B40
:103DB0001B6803F40033002BF0D100E000BF7B68E8
:103DC0001B6803F00203002B63D04C4B5B6803F0CD
:103DD0000C03002B0BD0494B5B6803F00C03082B42
:103DE0001CD1464B5B6803F48033002B16D1434B48
:103DF0001B6803F00203002B05D07B681B69012BB5
:103E000001D00123C0E13D4B1B6823F0F8027B6821
:103E10005B69DB00394913430B603AE07B681B693F
:103E2000002B20D0364B01221A60FEF777FE386156
:103E300008E0FEF773FE02463B69D31A022B01D954
:103E40000323A1E12D4B1B6803F00203002BF0D0EC
:103E50002A4B1B6823F0F8027B685B69DB0027496B
:103E600013430B6015E0264B00221A60FEF756FE46
:103E7000386108E0FEF752FE02463B69D31A022B76
:103E800001D9032380E11D4B1B6803F00203002BC3
:103E9000F0D17B681B6803F00803002B3AD07B68E5
:103EA0009B69002B19D0174B01221A60FEF736FED2
:103EB000386108E0FEF732FE02463B69D31A022B56
:103EC00001D9032360E10D4B5B6A03F00203002B71
:103ED000F0D0012000F0BAFA1CE00A4B00221A6070
:103EE000FEF71CFE38610FE0FEF718FE02463B6944
:103EF000D31A022B08D9032346E100BF0010024069
:103F00000000424280044242924B5B6A03F002038B
:103F1000002BE9D17B681B6803F00403002B00F041
:103F2000A6800023FB758B4BDB6903F08053002BCD
:103F30000DD1884BDB69874A43F08053D361854BB1
:103F4000DB6903F08053BB60BB680123FB75824BC8
:103F50001B6803F48073002B18D17F4B1B687E4ACB
:103F600043F480731360FEF7D9FD386108E0FEF773
:103F7000D5FD02463B69D31A642B01D9032303E123
:103F8000754B1B6803F48073002BF0D07B68DB68F3
:103F9000012B06D16F4B1B6A6E4A43F0010313627B
:103FA0002DE07B68DB68002B0CD16A4B1B6A694AE9
:103FB00023F001031362674B1B6A664A23F0040374
:103FC00013621CE07B68DB68052B0CD1614B1B6A1C
:103FD000604A43F0040313625E4B1B6A5D4A43F080
:103FE000010313620BE05B4B1B6A5A4A23F0010387
:103FF0001362584B1B6A574A23F0040313627B6811
:10400000DB68002B15D0FEF789FD38610AE0FEF76A
:1040100085FD02463B69D31A41F28832934201D9A9
:104020000323B1E04B4B1B6A03F00203002BEED0DD
:1040300014E0FEF773FD38610AE0FEF76FFD0246FB
:104040003B69D31A41F28832934201D903239BE0A2
:10405000404B1B6A03F00203002BEED1FB7D012BCA
:1040600005D13C4BDB693B4A23F08053D3617B682D
:10407000DB69002B00F08780364B5B6803F00C0394
:10408000082B61D07B68DB69022B46D1334B0022C1
:104090001A60FEF743FD386108E0FEF73FFD024677
:1040A0003B69D31A022B01D903236DE0294B1B680E
:1040B00003F00073002BF0D17B681B6AB3F5803FDF
:1040C00008D1244B5B6823F400327B689B6821494C
:1040D00013434B601F4B5B6823F474127B68196AAF
:1040E0007B685B6A0B431B4913434B601B4B0122EC
:1040F0001A60FEF713FD386108E0FEF70FFD024677
:104100003B69D31A022B01D903233DE0114B1B68F5
:1041100003F00073002BF0D035E0104B00221A6042
:10412000FEF7FCFC386108E0FEF7F8FC02463B694C
:10413000D31A022B01D9032326E0064B1B6803F098
:104140000073002BF0D11EE07B68DB69012B07D1E7
:10415000012319E00010024000700040600042425C
:104160000B4B5B68FB60FB6803F480327B681B6A67
:104170009A4206D1FB6803F470127B685B6A9A422C
:1041800001D0012300E0002318461837BD4680BD4A
:104190000010024080B584B000AF786039607B6861
:1041A000002B01D10123D0E06A4B1B6803F0070309
:1041B0003A689A4210D9674B1B6823F00702654999
:1041C0003B6813430B60634B1B6803F007033A68BB
:1041D0009A4201D00123B8E07B681B6803F0020318
:1041E000002B20D07B681B6803F00403002B05D054
:1041F000594B5B68584A43F4E06353607B681B6823
:1042000003F00803002B05D0534B5B68524A43F47C
:1042100060535360504B5B6823F0F0027B689B68EF
:104220004D4913434B607B681B6803F00103002B6F
:1042300040D07B685B68012B07D1474B1B6803F4B8
:104240000033002B15D101237FE07B685B68022BD4
:1042500007D1414B1B6803F00073002B09D10123E8
:1042600073E03D4B1B6803F00203002B01D10123D7
:104270006BE0394B5B6823F003027B685B6836496F
:1042800013434B60FEF74AFCF8600AE0FEF746FC79
:104290000246FB68D31A41F28832934201D90323C4
:1042A00053E02D4B5B6803F00C027B685B689B005E
:1042B0009A42EBD1274B1B6803F007033A689A42F6
:1042C00010D2244B1B6823F0070222493B6813439A
:1042D0000B60204B1B6803F007033A689A4201D039
:1042E000012332E07B681B6803F00403002B08D035
:1042F000194B5B6823F4E0627B68DB681649134363
:104300004B607B681B6803F00803002B09D0124B3D
:104310005B6823F460527B681B69DB000E49134322
:104320004B6000F021F802460B4B5B681B0903F061
:104330000F030A49CB5C22FA03F3094A1360094BC5
:104340001B681846FEF7A8FB002318461037BD4629
:1043500080BD00BF0020024000100240A0A3000862
:10436000200000202400002080B487B000AF00238C
:10437000FB600023BB6000237B6100237B60002384
:104380003B611E4B5B68FB60FB6803F00C03042B76
:1043900002D0082B03D027E0194B3B6127E0FB68D4
:1043A0009B0C03F00F03174AD35C7B60FB6803F49C
:1043B0008033002B10D0114B5B685B0C03F00103C2
:1043C000114AD35CBB607B680D4A03FB02F2BB68F9
:1043D000B2FBF3F37B6104E07B680C4A02FB03F35E
:1043E0007B617B693B6102E0054B3B6100BF3B6940
:1043F00018461C37BD4680BC704700BF0010024005
:1044000000127A00B8A30008C8A3000800093D0004
:1044100080B400AF024B1B681846BD4680BC704795
:104420002000002080B500AFFFF7F2FF0246054BE9
:104430005B681B0A03F007030349CB5C22FA03F312
:10444000184680BD00100240B0A3000880B485B0BB
:1044500000AF78600A4B1B680A4AA2FB03235B0A81
:104460007A6802FB03F3FB6000BFFB685A1EFA6028
:10447000002BF9D100BF00BF1437BD4680BC704788
:1044800020000020D34D621038B5104B04461D6843
:104490002B6BB3B9182000F06BFA0246286320B9E1
:1044A00046210B4B0B4800F0FDF90B490B4BC0E9C3
:1044B00000130B4B002183600B2383810120C2E991
:1044C000040100222B6B1C615A6138BD38000020AA
:1044D000CAA30008E1A300080E33CDAB34126DE689
:1044E000ECDE0500164B10B51C68236BB3B9182021
:1044F00000F03EFA0246206320B95221114B1248C7
:1045000000F0D0F91149124BC0E90013114B002102
:1045100083600B2383810120C2E90401216B0E48D3
:104520000B694C6958430D4A02FB0400A3FB02329D
:10453000013340EB0200C1E9043020F0004010BD1F
:1045400038000020CAA30008E1A300080E33CDAB59
:1045500034126DE6ECDE05002DF451582D7F954C9C
:10456000002310B50446C0E90033C0E9043383607A
:1045700081814366C2818361194608225C3000F064
:1045800014F90D4B246263620C4BA3620C4BE36283
:104590000C4B23630C4B9C4206D003F168029442FF
:1045A00002D0D0339C4205D104F15800BDE8104040
:1045B00000F074B910BD00BF254700084747000848
:1045C0007F470008A347000838050020024A034936
:1045D000034800F069B800BF2C000020B15100086A
:1045E0003C00002041680C4B10B59942044601D0B4
:1045F00000F0DEFDA168094B994202D0204600F090
:10460000D7FDE168064B994204D02046BDE8104032
:1046100000F0CEBD10BD00BF38050020A005002071
:104620000806002010B50B4B0B4C0C4A20461A60B4
:1046300004210022FFF794FF04F168000122092100
:10464000FFF78EFF04F1D0000222BDE810401221D6
:10465000FFF786BF7006002038050020CD45000812
:10466000014800F01CB900BF79060020014800F0A5
:1046700017B900BF7906002010B50446FFF7F0FF18
:10468000236A1BB1BDE81040FFF7F0BF044B236263
:10469000044B1B68002BF5D1FFF7C4FFF2E700BF06
:1046A000E5450008700600202DE9F84307468846D6
:1046B00014460026D4E90195B9F1010905D524680D
:1046C000002CF7D13046BDE8F883AB89012B07D920
:1046D000B5F90E30013303D029463846C0470643AA
:1046E0006835E9E70EB46FF0004100B59CB01DAB32
:1046F00002900690079104910848094953F8042B49
:104700000591006802A9019300F044FA0022029B7F
:104710001A701CB05DF804EB03B07047380000203D
:104720000802FFFF10B50C46B1F90E1000F068F852
:104730000028ABBF636DA3891B1823F48053ACBF63
:104740006365A38110BD2DE9F0411F468B890546A5
:10475000DB050C46164605D502230022B1F90E10E2
:1047600000F03CF8A389324623F48053A381284605
:104770003B46B4F90E10BDE8F04100F053B810B557
:104780000C46B1F90E1000F029F8431CA38915BF9F
:10479000606523F4805343F48053A38118BFA38141
:1047A00010BDB1F90E1000F009B80346024493425F
:1047B00000D1704703F8011BF9E7000038B500236A
:1047C000054D044608462B60FEF7BDF8431C02D198
:1047D0002B6803B1236038BD7406002038B5044649
:1047E000084611460022054D2A601A46FEF7CFF80A
:1047F000431C02D12B6803B1236038BD740600202E
:1048000038B50446084611460022054D2A601A466E
:10481000FEF760F8431C02D12B6803B1236038BD5A
:104820007406002038B50446084611460022054D9E
:104830002A601A46FEF76BF8431C02D12B6803B1BD
:10484000236038BD74060020014B1868704700BF14
:104850003800002070B500260C4D0D4C641BA410D0
:10486000A64209D102F018F800260A4D0A4C641B32
:10487000A410A64205D170BD55F8043B98470136F7
:10488000EEE755F8043B98470136F2E780A60008AA
:1048900080A6000880A6000884A60008704770471C
:1048A000704700001FB514461A46094B05461B68A1
:1048B000D86854B9074B1C46CDE9013400912B460A
:1048C000054900F09DFC00F0F3FC044BF4E700BF49
:1048D0003800002074A4000846A4000839A4000889
:1048E00038B50546002940D051F8043C0C1F002B78
:1048F000B8BFE41800F0E6F81C4A136833B96360E7
:1049000014602846BDE8384000F0E2B8A34208D958
:10491000206821188B4201BF19685B680918216063
:10492000EDE71A465B680BB1A342FAD9116850183B
:10493000A0420BD120680144501883421160E0D19D
:1049400018685B68084410605360DAE702D90C23EA
:104950002B60D6E7206821188B4201BF19685B687D
:104960000918216063605460CBE738BD80060020E1
:10497000024B0146186800F025B800BF380000203F
:1049800070B50F4E0C463168054611B900F064FC55
:1049900030602146284600F05FFC431C03D14FF0F5
:1049A000FF34204670BDC41C24F00304A042F8D09C
:1049B000211A284600F050FC0130F2D1EFE700BF89
:1049C0007C0600202DE9F843CD1C25F003050835B1
:1049D0000C2D38BF0C25002D064601DBA94204D959
:1049E0000C2333600020BDE8F883DFF8D48000F0AA
:1049F00069F8D8F800301C4644BB29463046FFF71A
:104A0000BFFF431C044658D1D8F800402746002F6A
:104A100043D1002C4BD023683946304604EB0309C0
:104A200000F01AFC814542D1216830466D1A2946B2
:104A3000FFF7A6FF01303AD023682B442360D8F853
:104A400000305A6862BBC8F800700FE02268521B41
:104A500020D40B2A17D96119A342256018BF5960C9
:104A6000636808BFC8F8001062514B60304600F020
:104A70002FF804F10B00231D20F00700C21A1CBF01
:104A80001B1AA350AFE76268A3420CBFC8F800200E
:104A90005A60EBE723466468AEE73C467F68B6E7BA
:104AA0001A465B68A342FBD100235360DEE70C2368
:104AB0003046336000F00CF894E70560D6E700BF9D
:104AC000800600200148FFF7EABE00BF78060020FC
:104AD0000148FFF7E5BE00BF780600202DE9F0474A
:104AE0001F468E688246BE420C4690460B682DD803
:104AF000B1F90C2012F4906F26D06569096905EBB5
:104B00004505A3EB010905EBD5757B1C4B446D10E6
:104B10009D4238BF1D46530527D52946FFF752FF52
:104B2000064660B34A46216900F0B4FBA38923F42A
:104B3000906343F08003A38126614E4426603E4685
:104B40006561A5EB0905A560BE4200D93E46324627
:104B50004146206800F066FB0020A3689B1BA36011
:104B6000236833442360BDE8F0872A4600F0A7FBA2
:104B700006460028E0D150462169FFF7B1FE0C231C
:104B8000CAF80030A3894FF0FF3043F04003A381FF
:104B9000E9E700002DE9F04F98468B8907461B0690
:104BA0000D4614469DB010D50B6973B94021FFF72F
:104BB00009FF2860286130B90C233B604FF0FF30BB
:104BC0001DB0BDE8F08F40236B61002309932023C3
:104BD0008DF8293030234FF00109CDF80C80DFF833
:104BE00098818DF82A3023469A4613F8012B0AB192
:104BF000252AF9D1BAEB040B0BD05B462246294695
:104C00003846FFF76BFF013000F0A780099A5A443D
:104C100009929AF80030002B00F09F8000234FF09B
:104C2000FF32CDE905230AF1010A049307938DF8B9
:104C300053301A935446052214F8011B4E4800F0D5
:104C40001BFB049AD8B9D00644BF20238DF85330FB
:104C5000110744BF2B238DF853309AF800302A2BCC
:104C600015D0544600204FF00A0C079A214611F83F
:104C7000013B303B092B4BD9B0B1079214E0A0EBBC
:104C8000080309FA03F31343A2460493D2E7039BF4
:104C9000191D1B680391002BBBBF5B4242F002024F
:104CA00007930793B8BF049223782E2B0AD1637819
:104CB0002A2B32D1039B02341A1D1B68039243EA4C
:104CC000E3730593DFF8B4A003225046217800F087
:104CD000D3FA38B14022049BA0EB0A008240134370
:104CE0000134049314F8011B062225488DF828107E
:104CF00000F0C2FA002836D0224B1BBB039B0733BF
:104D000023F0070308330393099B334409936AE7AD
:104D10000C4601200CFB0232A8E700234FF00A0CDE
:104D2000194601340593204610F8012B303A092A20
:104D300003D9002BC6D00591C4E7044601230CFB20
:104D40000121F0E703AB00932A4638460E4B04A935
:104D5000AFF30080421C0646D6D1AB895B063FF517
:104D60002DAF09982CE703AB00932A463846064B33
:104D700004A900F07DF8EDE775A400087BA4000805
:104D80007FA4000800000000DD4A00082DE9F0477C
:104D9000164698468A680B6907469342B8BF134681
:104DA000336091F843200C46DDF820900AB10133BE
:104DB00033602368990642BF336802333360256845
:104DC00015F0060506D104F1190AE36832689B1A4A
:104DD000AB422BDC94F843302268003B18BF012320
:104DE000920630D44146384604F14302C8470130A8
:104DF00023D02368226903F00603042B14BF002587
:104E000033684FF0000608BFE56804F11A0408BFD4
:104E1000ED1A54F8123C08BF25EAE5759342C4BF69
:104E20009B1AED18B5421AD1002008E00123524622
:104E300041463846C847013003D14FF0FF30BDE846
:104E4000F0870135C1E73020E11881F843005A1C92
:104E500094F845102244023382F84310C2E701233C
:104E6000224641463846C8470130E6D00136D9E7E8
:104E70002DE9FF470F7E9146782F80460C469A46D3
:104E80000C9E01F1430207D8622F0AD8002F00F0D0
:104E9000D380582F00F0BA8004F1420684F84270A3
:104EA0003AE0A7F16303152BF6D801A151F823F0DE
:104EB000094F00081D4F0008994E0008994E000840
:104EC000994E0008994E00081D4F0008994E0008A1
:104ED000994E0008994E0008994E00081F5000088E
:104EE000474F0008D94F0008994E0008994E000816
:104EF00041500008994E0008474F0008994E00089D
:104F0000994E0008E14F000833681A1D1B68326093
:104F100004F1420684F8423001239EE033682068A1
:104F2000191D3160060601D51D6803E04506FBD555
:104F3000B3F90050002D03DA2D236D4284F843307D
:104F40000A23594811E021683368080653F8045BC6
:104F500002D4490648BFADB26F2F336014BF0A2395
:104F600008235148002184F843106668002EA8BF2A
:104F70002168A660A4BF21F0040121600DB9002EB4
:104F80004BD01646B5FBF3F103FB1157C75D06F88E
:104F9000017D2F46BB420D46F4D9082B0BD1236867
:104FA000DF0708D5236961689942DEBF302306F820
:104FB000013C06F1FF36921B22614B4621464046DA
:104FC000CDF800A003AAFFF7E1FE01304AD14FF06F
:104FD000FF3004B0BDE8F087236843F0200323606E
:104FE0007827324884F84570236831681F0651F8E5
:104FF000045B02D45F0648BFADB23160D90744BF3D
:1050000043F0200323601DB11023ABE72648E9E7F6
:10501000236823F020032360F6E71646BDE73368D4
:105020002568181D616930602E061B6801D519605E
:1050300002E06806FBD51980002316462361BCE711
:10504000336800211A1D32601E686268304600F025
:1050500013F908B1801B606063682361002384F842
:105060004330AAE73246494640462369D0470130DB
:10507000ADD023689B0713D4E068039B9842B8BF68
:105080001846A6E70123324649464046D04701303C
:105090009DD00135E36803995B1AAB42F2DCEBE784
:1050A000002504F11906F5E786A4000897A4000876
:1050B000B1F90C20F8B5160705460C4654D44B68D8
:1050C000002B02DC0B6C002B48DDE66A002E45D07D
:1050D000002312F480522F68216A2B6030D0626D59
:1050E000A389590705D56368D21A636B0BB1236C8A
:1050F000D21A00232846E66A216AB047431CA389D6
:1051000006D129681D292BD8284A0A41D60727D459
:10511000002262602269D904226004D5421C01D1B8
:105120002B6803B96065616B2F60B9B104F144036A
:10513000994202D02846FFF7D3FB002363630DE0BA
:1051400001232846B0470246501CC9D12B68002BCA
:10515000C6D01D2B01D0162B1DD12F60002021E0C1
:1051600043F040031BB21AE00F69002FF6D09307FB
:1051700018BF00230E6808BF4B69F61B0F608B60D9
:10518000002EEBDD33463A462846216AD4F828C083
:10519000E047002807DCB4F90C3043F040034FF03F
:1051A000FF30A381F8BD0744361AE9E7FEFFBFDFF1
:1051B00038B50B6905460C4613B90025284638BD9D
:1051C00018B1036A0BB9FFF757FAB4F90C30002B8A
:1051D000F3D0626ED00704D4990502D4A06DFFF716
:1051E0005EFB28462146FFF763FF636E0546DA073C
:1051F000E4D4A3899B05E1D4A06DFFF751FBDDE763
:105200000EB403B5014603AB054853F8042B006800
:10521000019300F0A9F802B05DF804EB03B0704709
:1052200038000020884210B501EB020402D9844204
:10523000234607D8431EA14208D011F8012B03F8DA
:10524000012FF8E7014602448A4200D110BD13F84D
:10525000014D02F8014DF7E738B50023054D04462E
:1052600008462B60FDF7A0FB431C02D12B6803B15D
:10527000236038BD74060020034610B5C9B202444D
:105280009342184601D1002003E0047801338C4298
:10529000F6D110BD0A44914200F1FF3300D17047AE
:1052A00010B511F8014B914203F8014FF9D110BD2F
:1052B000062008B500F02CFA0120FDF700FB2DE9CF
:1052C000F041804615460C4621B91146BDE8F04133
:1052D000FFF778BB2AB9FFF703FB00242046BDE89F
:1052E000F08100F031FA8542064602D8B5EB500F46
:1052F000F4D829464046FFF765FB07460028ECD066
:10530000B5422A46214628BF3246FFF7C3FF214651
:105310004046FFF7E5FA3C46E0E7936810B4013BEE
:10532000002B936007DA9469A34201DB0A2902D1BA
:1053300010BC00F031B91368581C10601970084691
:1053400010BC7047F8B506460F461446D518AC4257
:1053500001D1002007E03A46304614F8011BFFF760
:10536000DCFF431CF3D1F8BD2DE9F04F0D46144688
:10537000984606469DB018B1036A0BB9FFF77CF951
:105380006B6ED90705D4AB899A0502D4A86DFFF7D7
:1053900086FAAB891B0701D52B699BB92946304694
:1053A00000F038F970B16B6EDC0704D54FF0FF30B8
:1053B0001DB0BDE8F08FAB899805F7D4A86DFFF755
:1053C0006FFAF3E70023099320238DF82930302367
:1053D0004FF00109CDF80C80DFF8A8818DF82A3054
:1053E00023469A4613F8012B0AB1252AF9D1BAEBC4
:1053F000040B0BD05B46224629463046FFF7A2FF3E
:10540000013000F0A780099A5A4409929AF80030B6
:10541000002B00F09F8000234FF0FF32CDE90523E1
:105420000AF1010A049307938DF853301A935446F6
:10543000052214F8011B5348FFF71EFF049AD8B940
:10544000D10644BF20238DF85330130744BF2B23CC
:105450008DF853309AF800302A2B15D0544600208E
:105460004FF00A0C079A214611F8013B303B092BFB
:105470004BD9B0B1079214E0A0EB080309FA03F38B
:105480001343A2460493D2E7039B191D1B680391A3
:10549000002BBBBF5B4242F0020207930793B8BFE9
:1054A000049223782E2B0AD163782A2B32D1039BC6
:1054B00002341A1D1B68039243EAE3730593DFF875
:1054C000C8A0032250462178FFF7D6FE38B140220B
:1054D000049BA0EB0A00824013430134049314F8A8
:1054E000011B062229488DF82810FFF7C5FE002869
:1054F0003FD0274B1BBB039B073323F00703083325
:105500000393099B3B4409936AE70C4601200CFB7B
:105510000232A8E700234FF00A0C19460134059324
:10552000204610F8012B303A092A03D9002BC6D0A7
:105530000591C4E7044601230CFB0121F0E703AB0E
:1055400000932A463046134B04A9AFF30080074668
:10555000781CD6D16B6ED90705D4AB899A0502D4D5
:10556000A86DFFF79DF9AB895B063FF51FAF099862
:105570001EE703AB00932A463046064B04A9FFF70B
:1055800077FCE4E775A400087BA400087FA400086A
:105590000000000045530008F8B50E4614460546C5
:1055A00018B1036A0BB9FFF767F8A369A360A38971
:1055B0001A0701D5236943B92146284600F02AF885
:1055C00018B14FF0FF373846F8BD23682269F6B2AC
:1055D000981A63693746834205DC21462846FFF75F
:1055E000E7FD0028EDD1A368013BA36023685A1CA6
:1055F00022601E706269431C9A4204D0A389DB07B3
:10560000E1D50A2EDFD121462846FFF7D1FD00283B
:10561000D9D0D6E738B5294B054618680C4618B1DD
:10562000036A0BB9FFF728F8B4F90C30190722D434
:10563000DA0607D409222A6043F040034FF0FF3016
:10564000A38133E0580712D5616B41B104F14403E3
:10565000994202D02846FFF743F900236363A389E8
:1056600023F02403A3810023636023692360A389BB
:1056700043F00803A38123694BB9A38903F4207382
:10568000B3F5007F03D02146284600F08AF8B4F92C
:105690000C3013F001020AD00022A260626952426B
:1056A000A261226942B913F08000C5D138BD9907C3
:1056B00058BF6269A260F4E70020F7E738000020D5
:1056C0001F2938B505460C4604D9162303604FF050
:1056D000FF3038BDC26B12B152F821304BB92846A9
:1056E00000F030F8224601462846BDE8384000F078
:1056F00017B8012B0AD0591C03D1162303600120CF
:10570000E7E70021204642F8241098470020E0E710
:10571000024B01461868FFF7D3BF00BF38000020D6
:1057200038B50023064D0446084611462B60FDF7A8
:10573000B6F8431C02D12B6803B1236038BD00BF0B
:1057400074060020FDF7A4B851F8043C181F002B84
:10575000BCBF0B58C018704770B50C46B1F90E109D
:10576000154600291E4696B00CDAA389002113F0D5
:10577000800F14BF40234FF48063002031602B6002
:1057800016B070BD6A4600F049F80028EDDB0199BB
:1057900001F47041A1F50053594259414FF480631F
:1057A000EBE78B89F7B59D0706460C4607D504F154
:1057B0004703236023610123636103B0F0BD6A46A0
:1057C00001ABFFF7C9FF009F054639463046FFF79A
:1057D000F9F848B9B4F90C309A05EED423F0030374
:1057E00043F00203A381E2E7A389C4E9040743F07D
:1057F0008003A381019B20605BB13046B4F90E1099
:1058000000F01EF828B1A38923F0030343F001033D
:10581000A381A3891D43A581CFE7000038B50023EC
:10582000064D0446084611462B60FDF797F8431CC9
:1058300002D12B6803B1236038BD00BF740600207D
:1058400038B50023054D044608462B60FDF795F852
:10585000431C02D12B6803B1236038BD74060020BD
:1058600030B5204D21F00044AC4202460B4687B0D3
:1058700006D80022002307B0BDE8304000F07CB815
:10588000194DAC4203D9FAF767FC07B030BD02AA44
:1058900000F0EAF900F00300012809D0022811D035
:1058A000B8B9DDE90423DDE9020100F065F8ECE7B1
:1058B0000090DDE90423DDE9020100F01DF901F1AA
:1058C0000041E2E7DDE90423DDE9020100F054F8DC
:1058D000F5E70123DDE902010093DDE9042300F08F
:1058E0000BF9D2E7FB21E93FFFFFEF7F30B5204DF9
:1058F00021F00044AC4202460B4687B006D8002394
:1059000000220093002300F0F7F804E0194DAC42A8
:1059100003D9FAF721FC07B030BD02AA00F0A4F9C0
:1059200000F00300012809D002280ED0C0B9DDE93B
:10593000020101230093DDE90423E4E7DDE9042308
:10594000DDE9020100F018F8E5E70123DDE90201D5
:105950000093DDE9042300F0CFF801F10041DAE71C
:10596000DDE90423DDE9020100F006F8F5E700BFF8
:10597000FB21E93FFFFFEF7F2DE9F74F21F00046C4
:10598000B6F1795F80468946CDE9002304D2FBF762
:1059900035F8002800F0868042464B46404649468E
:1059A000FAF792FD00224E4B04460D46FAF78CFDA5
:1059B0003FA3D3E9002382468B4620462946FAF7C7
:1059C00083FD3DA3D3E90023FAF7C8FB22462B460B
:1059D000FAF77AFD3AA3D3E90023FAF7BDFB224692
:1059E0002B46FAF771FD38A3D3E90023FAF7B6FB8B
:1059F00022462B46FAF768FD35A3D3E90023FAF7D0
:105A0000ABFB22462B46FAF75FFD33A3D3E9002315
:105A1000FAF7A4FB22462B46FAF756FD22462B4600
:105A2000FAF752FDDDE9002304460D46404649469B
:105A3000FAF74AFD0B46024629462046FAF78CFB48
:105A4000284B80469E4289460ED802460B46504659
:105A50005946FAF781FB024600200B462249FAF725
:105A60007BFB03B0BDE8F08F0024204B22469E4212
:105A70008CBF1F4DA6F500152B4600201A49FAF7DA
:105A80006BFB224606460F462B4650465946FAF710
:105A900063FB42464B46FAF75FFB02460B46304635
:105AA0003946DCE700201049DBE700BFAFF3008098
:105AB000D43888BEE9FAA8BDC4B1B4BD9EEE213E7B
:105AC000AD529C804F7E923E9015CB19A001FA3EBC
:105AD0007751C1166CC1563F4C5555555555A53F8C
